{"contracts/DrugVerification.sol":{"DrugVerification":{"abi":[{"inputs":[],"stateMutability":"nonpayable","type":"constructor"},{"inputs":[],"name":"AccessControlBadConfirmation","type":"error"},{"inputs":[{"internalType":"address","name":"account","type":"address"},{"internalType":"bytes32","name":"neededRole","type":"bytes32"}],"name":"AccessControlUnauthorizedAccount","type":"error"},{"inputs":[],"name":"ReentrancyGuardReentrantCall","type":"error"},{"anonymous":false,"inputs":[{"indexed":true,"internalType":"bytes32","name":"batchHash","type":"bytes32"},{"indexed":true,"internalType":"address","name":"deactivator","type":"address"},{"indexed":false,"internalType":"string","name":"reason","type":"string"}],"name":"BatchDeactivated","type":"event"},{"anonymous":false,"inputs":[{"indexed":true,"internalType":"bytes32","name":"batchHash","type":"bytes32"},{"indexed":false,"internalType":"bytes32","name":"merkleRoot","type":"bytes32"},{"indexed":true,"internalType":"address","name":"creator","type":"address"},{"indexed":false,"internalType":"uint256","name":"drugCount","type":"uint256"},{"indexed":false,"internalType":"uint256","name":"timestamp","type":"uint256"}],"name":"DrugBatchCreated","type":"event"},{"anonymous":false,"inputs":[{"indexed":true,"internalType":"bytes32","name":"drugHash","type":"bytes32"},{"indexed":true,"internalType":"bytes32","name":"batchHash","type":"bytes32"},{"indexed":false,"internalType":"bool","name":"isValid","type":"bool"},{"indexed":true,"internalType":"address","name":"verifier","type":"address"},{"indexed":false,"internalType":"uint256","name":"timestamp","type":"uint256"}],"name":"DrugVerificationResult","type":"event"},{"anonymous":false,"inputs":[{"indexed":true,"internalType":"bytes32","name":"role","type":"bytes32"},{"indexed":true,"internalType":"bytes32","name":"previousAdminRole","type":"bytes32"},{"indexed":true,"internalType":"bytes32","name":"newAdminRole","type":"bytes32"}],"name":"RoleAdminChanged","type":"event"},{"anonymous":false,"inputs":[{"indexed":true,"internalType":"bytes32","name":"role","type":"bytes32"},{"indexed":true,"internalType":"address","name":"account","type":"address"},{"indexed":true,"internalType":"address","name":"sender","type":"address"}],"name":"RoleGranted","type":"event"},{"anonymous":false,"inputs":[{"indexed":true,"internalType":"bytes32","name":"role","type":"bytes32"},{"indexed":true,"internalType":"address","name":"account","type":"address"},{"indexed":true,"internalType":"address","name":"sender","type":"address"}],"name":"RoleRevoked","type":"event"},{"inputs":[],"name":"BATCH_CREATOR_ROLE","outputs":[{"internalType":"bytes32","name":"","type":"bytes32"}],"stateMutability":"view","type":"function"},{"inputs":[],"name":"DEFAULT_ADMIN_ROLE","outputs":[{"internalType":"bytes32","name":"","type":"bytes32"}],"stateMutability":"view","type":"function"},{"inputs":[],"name":"VERIFIER_ROLE","outputs":[{"internalType":"bytes32","name":"","type":"bytes32"}],"stateMutability":"view","type":"function"},{"inputs":[{"internalType":"bytes32","name":"","type":"bytes32"}],"name":"batchInfo","outputs":[{"internalType":"bytes32","name":"merkleRoot","type":"bytes32"},{"internalType":"address","name":"creator","type":"address"},{"internalType":"uint256","name":"timestamp","type":"uint256"},{"internalType":"uint256","name":"drugCount","type":"uint256"},{"internalType":"bool","name":"isActive","type":"bool"},{"internalType":"string","name":"description","type":"string"}],"stateMutability":"view","type":"function"},{"inputs":[{"internalType":"bytes32","name":"_batchHash","type":"bytes32"},{"internalType":"bytes32","name":"_merkleRoot","type":"bytes32"},{"internalType":"uint256","name":"_drugCount","type":"uint256"},{"internalType":"string","name":"_description","type":"string"}],"name":"createBatchWithMerkleRoot","outputs":[],"stateMutability":"nonpayable","type":"function"},{"inputs":[{"internalType":"bytes32","name":"_batchHash","type":"bytes32"},{"internalType":"string","name":"_reason","type":"string"}],"name":"deactivateBatch","outputs":[],"stateMutability":"nonpayable","type":"function"},{"inputs":[{"internalType":"bytes32","name":"","type":"bytes32"}],"name":"drugVerificationCount","outputs":[{"internalType":"uint256","name":"","type":"uint256"}],"stateMutability":"view","type":"function"},{"inputs":[{"internalType":"string","name":"_batchName","type":"string"},{"internalType":"address","name":"_manufacturer","type":"address"},{"internalType":"uint256","name":"_timestamp","type":"uint256"}],"name":"generateBatchHash","outputs":[{"internalType":"bytes32","name":"","type":"bytes32"}],"stateMutability":"pure","type":"function"},{"inputs":[{"components":[{"internalType":"string","name":"name","type":"string"},{"internalType":"string","name":"drugCode","type":"string"},{"internalType":"string","name":"manufacturer","type":"string"},{"internalType":"uint256","name":"batchNumber","type":"uint256"},{"internalType":"uint256","name":"manufactureDate","type":"uint256"},{"internalType":"uint256","name":"expiryDate","type":"uint256"},{"internalType":"string","name":"regulatoryApproval","type":"string"},{"internalType":"string","name":"additionalData","type":"string"}],"internalType":"struct DrugVerification.DrugData","name":"_drug","type":"tuple"}],"name":"generateDrugHash","outputs":[{"internalType":"bytes32","name":"","type":"bytes32"}],"stateMutability":"pure","type":"function"},{"inputs":[{"internalType":"bytes32","name":"_batchHash","type":"bytes32"}],"name":"getBatchInfo","outputs":[{"components":[{"internalType":"bytes32","name":"merkleRoot","type":"bytes32"},{"internalType":"address","name":"creator","type":"address"},{"internalType":"uint256","name":"timestamp","type":"uint256"},{"internalType":"uint256","name":"drugCount","type":"uint256"},{"internalType":"bool","name":"isActive","type":"bool"},{"internalType":"string","name":"description","type":"string"}],"internalType":"struct DrugVerification.BatchInfo","name":"","type":"tuple"}],"stateMutability":"view","type":"function"},{"inputs":[{"internalType":"bytes32","name":"_drugHash","type":"bytes32"}],"name":"getDrugVerificationCount","outputs":[{"internalType":"uint256","name":"","type":"uint256"}],"stateMutability":"view","type":"function"},{"inputs":[{"internalType":"bytes32","name":"role","type":"bytes32"}],"name":"getRoleAdmin","outputs":[{"internalType":"bytes32","name":"","type":"bytes32"}],"stateMutability":"view","type":"function"},{"inputs":[{"internalType":"bytes32","name":"role","type":"bytes32"},{"internalType":"address","name":"account","type":"address"}],"name":"grantRole","outputs":[],"stateMutability":"nonpayable","type":"function"},{"inputs":[{"internalType":"bytes32","name":"role","type":"bytes32"},{"internalType":"address","name":"account","type":"address"}],"name":"hasRole","outputs":[{"internalType":"bool","name":"","type":"bool"}],"stateMutability":"view","type":"function"},{"inputs":[{"internalType":"bytes32","name":"_drugHash","type":"bytes32"}],"name":"isDrugVerified","outputs":[{"internalType":"bool","name":"","type":"bool"}],"stateMutability":"view","type":"function"},{"inputs":[{"internalType":"bytes32","name":"role","type":"bytes32"},{"internalType":"address","name":"callerConfirmation","type":"address"}],"name":"renounceRole","outputs":[],"stateMutability":"nonpayable","type":"function"},{"inputs":[{"internalType":"bytes32","name":"role","type":"bytes32"},{"internalType":"address","name":"account","type":"address"}],"name":"revokeRole","outputs":[],"stateMutability":"nonpayable","type":"function"},{"inputs":[{"internalType":"bytes4","name":"interfaceId","type":"bytes4"}],"name":"supportsInterface","outputs":[{"internalType":"bool","name":"","type":"bool"}],"stateMutability":"view","type":"function"},{"inputs":[{"internalType":"bytes32","name":"","type":"bytes32"}],"name":"verifiedDrugs","outputs":[{"internalType":"bool","name":"","type":"bool"}],"stateMutability":"view","type":"function"},{"inputs":[{"internalType":"address","name":"","type":"address"}],"name":"verifierCount","outputs":[{"internalType":"uint256","name":"","type":"uint256"}],"stateMutability":"view","type":"function"},{"inputs":[{"internalType":"bytes32","name":"_batchHash","type":"bytes32"},{"internalType":"bytes32","name":"_drugHash","type":"bytes32"},{"internalType":"bytes32[]","name":"_proof","type":"bytes32[]"}],"name":"verifyDrugInBatch","outputs":[{"internalType":"bool","name":"","type":"bool"}],"stateMutability":"nonpayable","type":"function"}],"evm":{"bytecode":{"linkReferences":{},"object":"608060405234620000425760018055620000193362000047565b506200002533620000c7565b50620000313362000169565b5060405161131a9081620002078239f35b600080fd5b6001600160a01b031660008181527fad3228b676f7d3cd4284a5443f17f1962b36e491b30a40b2405849e597ba5fb5602052604081205490919060ff16620000c357818052816020526040822081835260205260408220600160ff198254161790553391600080516020620015218339815191528180a4600190565b5090565b6001600160a01b031660008181527f1da0b5176dfe03406af5a6eed66ca01dda9b45ac4da671c3fa379cb93717ef8160205260408120549091907f0ce23c3e399818cfee81a7ab0880f714e53d7672b08df0fa62f2843416e1ea099060ff166200016457808352826020526040832082845260205260408320600160ff1982541617905560008051602062001521833981519152339380a4600190565b505090565b6001600160a01b031660008181527f30433366eac5a2acde383037df453ad4c87319592fed09ed71e70bbbd312d3fc60205260408120549091907ff01dfff628bb2030bb23788fe73598a0f61c4e4b7f7ab01ac604be7f33162b489060ff166200016457808352826020526040832082845260205260408320600160ff1982541617905560008051602062001521833981519152339380a460019056fe608080604052600436101561001357600080fd5b60003560e01c90816301ffc9a714610ef3575080631c43e095146101065780631d4aa61f14610e0d578063248a9ca314610ec45780632f2ff15d14610e8557806336568abe14610e3e57806352bcc90d14610e0d5780635b46e13e14610b4257806374aa149614610abf578063753207c7146109c85780638274d0451461080b57806391d14854146107be578063a217fddf146107a2578063b500365e14610767578063b97d8c4714610626578063be8c9fab14610592578063c3f5a1b414610554578063c4233e5c146101b3578063d547741f14610172578063e7705db6146101375763fc68d3dd1461010657600080fd5b346101325760203660031901126101325760043560005260046020526020604060002054604051908152f35b600080fd5b346101325760003660031901126101325760206040517f0ce23c3e399818cfee81a7ab0880f714e53d7672b08df0fa62f2843416e1ea098152f35b34610132576040366003190112610132576101b1600435610191610f46565b908060005260006020526101ac600160406000200154611119565b6111db565b005b346101325760803660031901126101325760643567ffffffffffffffff8111610132576101e49036906004016110c2565b3360009081527f30433366eac5a2acde383037df453ad4c87319592fed09ed71e70bbbd312d3fc602052604090205460ff16801561051c575b61022690611250565b61022e61129c565b602435156104e1576044351561049c57600435600052600260205260ff6004604060002001541661046057600560405161026781610f5c565b602435815233602082015242604082015260443560608201526001608082015260a081019283526004356000526002602052604060002090805182556001820160018060a01b036020830151166bffffffffffffffffffffffff60a01b8254161790556040810151600283015560608101516003830155608060048301910151151560ff8019835416911617905501905190815167ffffffffffffffff811161044a576103148254610f9a565b601f8111610402575b50602092601f821160011461039e5792819293600092610393575b50508160011b916000199060031b1c19161790555b6040516024358152604435602082015242604082015233907f0fb669f9a7fefdd0910acbdc2e6a292a89e1a4996205b698f244f33aa823bbe5606060043592a360018055005b015190508380610338565b601f198216938360005260206000209160005b8681106103ea57508360019596106103d1575b505050811b01905561034d565b015160001960f88460031b161c191690558380806103c4565b919260206001819286850151815501940192016103b1565b826000526020600020601f830160051c81019160208410610440575b601f0160051c01905b818110610434575061031d565b60008155600101610427565b909150819061041e565b634e487b7160e01b600052604160045260246000fd5b60405162461bcd60e51b8152602060048201526014602482015273426174636820616c72656164792065786973747360601b6044820152606490fd5b60405162461bcd60e51b815260206004820152601b60248201527f4472756720636f756e74206d75737420626520706f73697469766500000000006044820152606490fd5b60405162461bcd60e51b8152602060048201526013602482015272125b9d985b1a59081b595c9adb19481c9bdbdd606a1b6044820152606490fd5b503360009081527fad3228b676f7d3cd4284a5443f17f1962b36e491b30a40b2405849e597ba5fb5602052604090205460ff1661021d565b34610132576020366003190112610132576004356001600160a01b038116908190036101325760005260056020526020604060002054604051908152f35b346101325760603660031901126101325760043567ffffffffffffffff8111610132576105c560209136906004016110c2565b6105cd610f46565b61061b60546040518093866105eb818401978881519384920161107a565b8201906bffffffffffffffffffffffff199060601b16878201526044356034820152036034810184520182610f78565b519020604051908152f35b346101325760403660031901126101325760043560243567ffffffffffffffff81116101325761065a9036906004016110c2565b3360009081527f30433366eac5a2acde383037df453ad4c87319592fed09ed71e70bbbd312d3fc60209081526040909120549092919060ff168015610749575b6106a390611250565b816000526002835260ff60046040600020015416156107115761070c7f6cc795e272aa17edef887810c33965edb8d8f9f3377573bec2dcf05fc03bd540918360005260028552600460406000200160ff198154169055604051918291868352339683019061109d565b0390a3005b60405162461bcd60e51b815260048101849052601060248201526f4261746368206e6f742061637469766560801b6044820152606490fd5b5060008080528084526040808220338352855290205460ff1661069a565b346101325760003660031901126101325760206040517ff01dfff628bb2030bb23788fe73598a0f61c4e4b7f7ab01ac604be7f33162b488152f35b3461013257600036600319011261013257602060405160008152f35b34610132576040366003190112610132576107d7610f46565b600435600052600060205260406000209060018060a01b0316600052602052602060ff604060002054166040519015158152f35b3461013257602060031981813601126101325767ffffffffffffffff6004358181116101325761010080938236030112610132576040519283018381108382111761044a5760405280600401358281116101325761086f90600436918401016110c2565b835260248101358281116101325761088d90600436918401016110c2565b928481019384526044820135838111610132576108b090600436918501016110c2565b916040820192835260608201936064820135855260808301906084830135825260a084019260a4810135845260c4810135828111610132576108f890600436918401016110c2565b9160c0860192835260e4820135908111610132573691016004019061091c916110c2565b938460e082015251965194519551915192519051926040519687968a8089018b819c51928391019161094d9261107a565b8801815191828d8084019201916109639261107a565b01815191828c8084019201916109789261107a565b0192898401526040830152606082015281519182886080840192019161099d9261107a565b018151918287608084019201916109b39261107a565b010360608101825260800161061b9082610f78565b346101325760208060031936011261013257606060a06040516109ea81610f5c565b6000815260008482015260006040820152600083820152600060808201520152600435600052600281526040600020610abb60405191610a2983610f5c565b8054835260018060a01b0390816001820154169185850192835260028201546040860190815260038301549160608701928352610a79600560ff6004870154169560808a01961515875201610fd4565b9460a08801958652604051988998818a5251908901525116604087015251606086015251608085015251151560a08401525160c08084015260e083019061109d565b0390f35b3461013257602036600319011261013257600435600052600260205260406000208054610abb60018060a01b03600184015416926002810154906003810154610b12600560ff6004850154169301610fd4565b9260405196879687526020870152604086015260608501521515608084015260c060a084015260c083019061109d565b346101325760603660031901126101325767ffffffffffffffff602460043560443582358482116101325736602383011215610132578160040135948511610df85760059085821b60405193602097610b9d89840187610f78565b85528688860192820101913683116101325787899201905b838210610de957505050507f0ce23c3e399818cfee81a7ab0880f714e53d7672b08df0fa62f2843416e1ea0960005260008652604060002033600052865260ff604060002054168015610dc7575b15610d8b57610c1061129c565b8360005260028652604060002060ff60048201541615610d475754948515610d145750600093815b8451861015610c7f5785841b85018801519081811015610c6c576000528752610c6660406000205b956112bf565b94610c38565b906000528752610c666040600020610c60565b87945086149283610cca575b506040519183835242858401527f1bad957772d37d622630f431a184d6e6932abfe1ddf17b738b3e6b032071591960403394a460018055604051908152f35b82600052600385526040600020600160ff19825416179055600485526040600020610cf581546112bf565b90553360005284526040600020610d0c81546112bf565b905584610c8b565b86600d6064926040519262461bcd60e51b845260048401528201526c092dcecc2d8d2c840c4c2e8c6d609b1b6044820152fd5b60405162461bcd60e51b815260048101889052601b818801527f4261746368206e6f7420666f756e64206f7220696e61637469766500000000006044820152606490fd5b60405162461bcd60e51b815260048101879052601581870152742ab730baba3437b934bd32b2103b32b934b334b2b960591b6044820152606490fd5b506000805260008652604060002033600052865260ff60406000205416610c03565b81358152908201908201610bb5565b83634e487b7160e01b60005260416004526000fd5b34610132576020366003190112610132576004356000526003602052602060ff604060002054166040519015158152f35b3461013257604036600319011261013257610e57610f46565b336001600160a01b03821603610e73576101b1906004356111db565b60405163334bd91960e11b8152600490fd5b34610132576040366003190112610132576101b1600435610ea4610f46565b90806000526000602052610ebf600160406000200154611119565b61115d565b346101325760203660031901126101325760043560005260006020526020600160406000200154604051908152f35b34610132576020366003190112610132576004359063ffffffff60e01b821680920361013257602091637965db0b60e01b8114908115610f35575b5015158152f35b6301ffc9a760e01b14905083610f2e565b602435906001600160a01b038216820361013257565b60c0810190811067ffffffffffffffff82111761044a57604052565b90601f8019910116810190811067ffffffffffffffff82111761044a57604052565b90600182811c92168015610fca575b6020831014610fb457565b634e487b7160e01b600052602260045260246000fd5b91607f1691610fa9565b9060405191826000825492610fe884610f9a565b9081845260019485811690816000146110575750600114611014575b505061101292500383610f78565b565b9093915060005260209081600020936000915b81831061103f57505061101293508201013880611004565b85548884018501529485019487945091830191611027565b91505061101294506020925060ff191682840152151560051b8201013880611004565b60005b83811061108d5750506000910152565b818101518382015260200161107d565b906020916110b68151809281855285808601910161107a565b601f01601f1916010190565b81601f820112156101325780359067ffffffffffffffff821161044a57604051926110f7601f8401601f191660200185610f78565b8284526020838301011161013257816000926020809301838601378301015290565b80600052600060205260406000203360005260205260ff604060002054161561113f5750565b6044906040519063e2517d3f60e01b82523360048301526024820152fd5b9060009180835282602052604083209160018060a01b03169182845260205260ff604084205416156000146111d657808352826020526040832082845260205260408320600160ff198254161790557f2f8788117e7eff1d82e926ec794901d17c78024a50270940304540a733656f0d339380a4600190565b505090565b9060009180835282602052604083209160018060a01b03169182845260205260ff6040842054166000146111d65780835282602052604083208284526020526040832060ff1981541690557ff6391f5c32d9c69d2a47ea670b442974b53935d1edc7fd64eb21e047a839171b339380a4600190565b1561125757565b60405162461bcd60e51b815260206004820152601a60248201527f556e617574686f72697a65642062617463682063726561746f720000000000006044820152606490fd5b6002600154146112ad576002600155565b604051633ee5aeb560e01b8152600490fd5b60001981146112ce5760010190565b634e487b7160e01b600052601160045260246000fdfea264697066735822122070677d3f7e29af26340f59de9ec5e7ae33a50ebc0c59c3e5a10ff6de1849bb7e64736f6c634300081400332f8788117e7eff1d82e926ec794901d17c78024a50270940304540a733656f0d","opcodes":"PUSH1 0x80 PUSH1 0x40 MSTORE CALLVALUE PUSH3 0x42 JUMPI PUSH1 0x1 DUP1 SSTORE PUSH3 0x19 CALLER PUSH3 0x47 JUMP JUMPDEST POP PUSH3 0x25 CALLER PUSH3 0xC7 JUMP JUMPDEST POP PUSH3 0x31 CALLER PUSH3 0x169 JUMP JUMPDEST POP PUSH1 0x40 MLOAD PUSH2 0x131A SWAP1 DUP2 PUSH3 0x207 DUP3 CODECOPY RETURN JUMPDEST PUSH1 0x0 DUP1 REVERT JUMPDEST PUSH1 0x1 PUSH1 0x1 PUSH1 0xA0 SHL SUB AND PUSH1 0x0 DUP2 DUP2 MSTORE PUSH32 0xAD3228B676F7D3CD4284A5443F17F1962B36E491B30A40B2405849E597BA5FB5 PUSH1 0x20 MSTORE PUSH1 0x40 DUP2 KECCAK256 SLOAD SWAP1 SWAP2 SWAP1 PUSH1 0xFF AND PUSH3 0xC3 JUMPI DUP2 DUP1 MSTORE DUP2 PUSH1 0x20 MSTORE PUSH1 0x40 DUP3 KECCAK256 DUP2 DUP4 MSTORE PUSH1 0x20 MSTORE PUSH1 0x40 DUP3 KECCAK256 PUSH1 0x1 PUSH1 0xFF NOT DUP3 SLOAD AND OR SWAP1 SSTORE CALLER SWAP2 PUSH1 0x0 DUP1 MLOAD PUSH1 0x20 PUSH3 0x1521 DUP4 CODECOPY DUP2 MLOAD SWAP2 MSTORE DUP2 DUP1 LOG4 PUSH1 0x1 SWAP1 JUMP JUMPDEST POP SWAP1 JUMP JUMPDEST PUSH1 0x1 PUSH1 0x1 PUSH1 0xA0 SHL SUB AND PUSH1 0x0 DUP2 DUP2 MSTORE PUSH32 0x1DA0B5176DFE03406AF5A6EED66CA01DDA9B45AC4DA671C3FA379CB93717EF81 PUSH1 0x20 MSTORE PUSH1 0x40 DUP2 KECCAK256 SLOAD SWAP1 SWAP2 SWAP1 PUSH32 0xCE23C3E399818CFEE81A7AB0880F714E53D7672B08DF0FA62F2843416E1EA09 SWAP1 PUSH1 0xFF AND PUSH3 0x164 JUMPI DUP1 DUP4 MSTORE DUP3 PUSH1 0x20 MSTORE PUSH1 0x40 DUP4 KECCAK256 DUP3 DUP5 MSTORE PUSH1 0x20 MSTORE PUSH1 0x40 DUP4 KECCAK256 PUSH1 0x1 PUSH1 0xFF NOT DUP3 SLOAD AND OR SWAP1 SSTORE PUSH1 0x0 DUP1 MLOAD PUSH1 0x20 PUSH3 0x1521 DUP4 CODECOPY DUP2 MLOAD SWAP2 MSTORE CALLER SWAP4 DUP1 LOG4 PUSH1 0x1 SWAP1 JUMP JUMPDEST POP POP SWAP1 JUMP JUMPDEST PUSH1 0x1 PUSH1 0x1 PUSH1 0xA0 SHL SUB AND PUSH1 0x0 DUP2 DUP2 MSTORE PUSH32 0x30433366EAC5A2ACDE383037DF453AD4C87319592FED09ED71E70BBBD312D3FC PUSH1 0x20 MSTORE PUSH1 0x40 DUP2 KECCAK256 SLOAD SWAP1 SWAP2 SWAP1 PUSH32 0xF01DFFF628BB2030BB23788FE73598A0F61C4E4B7F7AB01AC604BE7F33162B48 SWAP1 PUSH1 0xFF AND PUSH3 0x164 JUMPI DUP1 DUP4 MSTORE DUP3 PUSH1 0x20 MSTORE PUSH1 0x40 DUP4 KECCAK256 DUP3 DUP5 MSTORE PUSH1 0x20 MSTORE PUSH1 0x40 DUP4 KECCAK256 PUSH1 0x1 PUSH1 0xFF NOT DUP3 SLOAD AND OR SWAP1 SSTORE PUSH1 0x0 DUP1 MLOAD PUSH1 0x20 PUSH3 0x1521 DUP4 CODECOPY DUP2 MLOAD SWAP2 MSTORE CALLER SWAP4 DUP1 LOG4 PUSH1 0x1 SWAP1 JUMP INVALID PUSH1 0x80 DUP1 PUSH1 0x40 MSTORE PUSH1 0x4 CALLDATASIZE LT ISZERO PUSH2 0x13 JUMPI PUSH1 0x0 DUP1 REVERT JUMPDEST PUSH1 0x0 CALLDATALOAD PUSH1 0xE0 SHR SWAP1 DUP2 PUSH4 0x1FFC9A7 EQ PUSH2 0xEF3 JUMPI POP DUP1 PUSH4 0x1C43E095 EQ PUSH2 0x106 JUMPI DUP1 PUSH4 0x1D4AA61F EQ PUSH2 0xE0D JUMPI DUP1 PUSH4 0x248A9CA3 EQ PUSH2 0xEC4 JUMPI DUP1 PUSH4 0x2F2FF15D EQ PUSH2 0xE85 JUMPI DUP1 PUSH4 0x36568ABE EQ PUSH2 0xE3E JUMPI DUP1 PUSH4 0x52BCC90D EQ PUSH2 0xE0D JUMPI DUP1 PUSH4 0x5B46E13E EQ PUSH2 0xB42 JUMPI DUP1 PUSH4 0x74AA1496 EQ PUSH2 0xABF JUMPI DUP1 PUSH4 0x753207C7 EQ PUSH2 0x9C8 JUMPI DUP1 PUSH4 0x8274D045 EQ PUSH2 0x80B JUMPI DUP1 PUSH4 0x91D14854 EQ PUSH2 0x7BE JUMPI DUP1 PUSH4 0xA217FDDF EQ PUSH2 0x7A2 JUMPI DUP1 PUSH4 0xB500365E EQ PUSH2 0x767 JUMPI DUP1 PUSH4 0xB97D8C47 EQ PUSH2 0x626 JUMPI DUP1 PUSH4 0xBE8C9FAB EQ PUSH2 0x592 JUMPI DUP1 PUSH4 0xC3F5A1B4 EQ PUSH2 0x554 JUMPI DUP1 PUSH4 0xC4233E5C EQ PUSH2 0x1B3 JUMPI DUP1 PUSH4 0xD547741F EQ PUSH2 0x172 JUMPI DUP1 PUSH4 0xE7705DB6 EQ PUSH2 0x137 JUMPI PUSH4 0xFC68D3DD EQ PUSH2 0x106 JUMPI PUSH1 0x0 DUP1 REVERT JUMPDEST CALLVALUE PUSH2 0x132 JUMPI PUSH1 0x20 CALLDATASIZE PUSH1 0x3 NOT ADD SLT PUSH2 0x132 JUMPI PUSH1 0x4 CALLDATALOAD PUSH1 0x0 MSTORE PUSH1 0x4 PUSH1 0x20 MSTORE PUSH1 0x20 PUSH1 0x40 PUSH1 0x0 KECCAK256 SLOAD PUSH1 0x40 MLOAD SWAP1 DUP2 MSTORE RETURN JUMPDEST PUSH1 0x0 DUP1 REVERT JUMPDEST CALLVALUE PUSH2 0x132 JUMPI PUSH1 0x0 CALLDATASIZE PUSH1 0x3 NOT ADD SLT PUSH2 0x132 JUMPI PUSH1 0x20 PUSH1 0x40 MLOAD PUSH32 0xCE23C3E399818CFEE81A7AB0880F714E53D7672B08DF0FA62F2843416E1EA09 DUP2 MSTORE RETURN JUMPDEST CALLVALUE PUSH2 0x132 JUMPI PUSH1 0x40 CALLDATASIZE PUSH1 0x3 NOT ADD SLT PUSH2 0x132 JUMPI PUSH2 0x1B1 PUSH1 0x4 CALLDATALOAD PUSH2 0x191 PUSH2 0xF46 JUMP JUMPDEST SWAP1 DUP1 PUSH1 0x0 MSTORE PUSH1 0x0 PUSH1 0x20 MSTORE PUSH2 0x1AC PUSH1 0x1 PUSH1 0x40 PUSH1 0x0 KECCAK256 ADD SLOAD PUSH2 0x1119 JUMP JUMPDEST PUSH2 0x11DB JUMP JUMPDEST STOP JUMPDEST CALLVALUE PUSH2 0x132 JUMPI PUSH1 0x80 CALLDATASIZE PUSH1 0x3 NOT ADD SLT PUSH2 0x132 JUMPI PUSH1 0x64 CALLDATALOAD PUSH8 0xFFFFFFFFFFFFFFFF DUP2 GT PUSH2 0x132 JUMPI PUSH2 0x1E4 SWAP1 CALLDATASIZE SWAP1 PUSH1 0x4 ADD PUSH2 0x10C2 JUMP JUMPDEST CALLER PUSH1 0x0 SWAP1 DUP2 MSTORE PUSH32 0x30433366EAC5A2ACDE383037DF453AD4C87319592FED09ED71E70BBBD312D3FC PUSH1 0x20 MSTORE PUSH1 0x40 SWAP1 KECCAK256 SLOAD PUSH1 0xFF AND DUP1 ISZERO PUSH2 0x51C JUMPI JUMPDEST PUSH2 0x226 SWAP1 PUSH2 0x1250 JUMP JUMPDEST PUSH2 0x22E PUSH2 0x129C JUMP JUMPDEST PUSH1 0x24 CALLDATALOAD ISZERO PUSH2 0x4E1 JUMPI PUSH1 0x44 CALLDATALOAD ISZERO PUSH2 0x49C JUMPI PUSH1 0x4 CALLDATALOAD PUSH1 0x0 MSTORE PUSH1 0x2 PUSH1 0x20 MSTORE PUSH1 0xFF PUSH1 0x4 PUSH1 0x40 PUSH1 0x0 KECCAK256 ADD SLOAD AND PUSH2 0x460 JUMPI PUSH1 0x5 PUSH1 0x40 MLOAD PUSH2 0x267 DUP2 PUSH2 0xF5C JUMP JUMPDEST PUSH1 0x24 CALLDATALOAD DUP2 MSTORE CALLER PUSH1 0x20 DUP3 ADD MSTORE TIMESTAMP PUSH1 0x40 DUP3 ADD MSTORE PUSH1 0x44 CALLDATALOAD PUSH1 0x60 DUP3 ADD MSTORE PUSH1 0x1 PUSH1 0x80 DUP3 ADD MSTORE PUSH1 0xA0 DUP2 ADD SWAP3 DUP4 MSTORE PUSH1 0x4 CALLDATALOAD PUSH1 0x0 MSTORE PUSH1 0x2 PUSH1 0x20 MSTORE PUSH1 0x40 PUSH1 0x0 KECCAK256 SWAP1 DUP1 MLOAD DUP3 SSTORE PUSH1 0x1 DUP3 ADD PUSH1 0x1 DUP1 PUSH1 0xA0 SHL SUB PUSH1 0x20 DUP4 ADD MLOAD AND PUSH12 0xFFFFFFFFFFFFFFFFFFFFFFFF PUSH1 0xA0 SHL DUP3 SLOAD AND OR SWAP1 SSTORE PUSH1 0x40 DUP2 ADD MLOAD PUSH1 0x2 DUP4 ADD SSTORE PUSH1 0x60 DUP2 ADD MLOAD PUSH1 0x3 DUP4 ADD SSTORE PUSH1 0x80 PUSH1 0x4 DUP4 ADD SWAP2 ADD MLOAD ISZERO ISZERO PUSH1 0xFF DUP1 NOT DUP4 SLOAD AND SWAP2 AND OR SWAP1 SSTORE ADD SWAP1 MLOAD SWAP1 DUP2 MLOAD PUSH8 0xFFFFFFFFFFFFFFFF DUP2 GT PUSH2 0x44A JUMPI PUSH2 0x314 DUP3 SLOAD PUSH2 0xF9A JUMP JUMPDEST PUSH1 0x1F DUP2 GT PUSH2 0x402 JUMPI JUMPDEST POP PUSH1 0x20 SWAP3 PUSH1 0x1F DUP3 GT PUSH1 0x1 EQ PUSH2 0x39E JUMPI SWAP3 DUP2 SWAP3 SWAP4 PUSH1 0x0 SWAP3 PUSH2 0x393 JUMPI JUMPDEST POP POP DUP2 PUSH1 0x1 SHL SWAP2 PUSH1 0x0 NOT SWAP1 PUSH1 0x3 SHL SHR NOT AND OR SWAP1 SSTORE JUMPDEST PUSH1 0x40 MLOAD PUSH1 0x24 CALLDATALOAD DUP2 MSTORE PUSH1 0x44 CALLDATALOAD PUSH1 0x20 DUP3 ADD MSTORE TIMESTAMP PUSH1 0x40 DUP3 ADD MSTORE CALLER SWAP1 PUSH32 0xFB669F9A7FEFDD0910ACBDC2E6A292A89E1A4996205B698F244F33AA823BBE5 PUSH1 0x60 PUSH1 0x4 CALLDATALOAD SWAP3 LOG3 PUSH1 0x1 DUP1 SSTORE STOP JUMPDEST ADD MLOAD SWAP1 POP DUP4 DUP1 PUSH2 0x338 JUMP JUMPDEST PUSH1 0x1F NOT DUP3 AND SWAP4 DUP4 PUSH1 0x0 MSTORE PUSH1 0x20 PUSH1 0x0 KECCAK256 SWAP2 PUSH1 0x0 JUMPDEST DUP7 DUP2 LT PUSH2 0x3EA JUMPI POP DUP4 PUSH1 0x1 SWAP6 SWAP7 LT PUSH2 0x3D1 JUMPI JUMPDEST POP POP POP DUP2 SHL ADD SWAP1 SSTORE PUSH2 0x34D JUMP JUMPDEST ADD MLOAD PUSH1 0x0 NOT PUSH1 0xF8 DUP5 PUSH1 0x3 SHL AND SHR NOT AND SWAP1 SSTORE DUP4 DUP1 DUP1 PUSH2 0x3C4 JUMP JUMPDEST SWAP2 SWAP3 PUSH1 0x20 PUSH1 0x1 DUP2 SWAP3 DUP7 DUP6 ADD MLOAD DUP2 SSTORE ADD SWAP5 ADD SWAP3 ADD PUSH2 0x3B1 JUMP JUMPDEST DUP3 PUSH1 0x0 MSTORE PUSH1 0x20 PUSH1 0x0 KECCAK256 PUSH1 0x1F DUP4 ADD PUSH1 0x5 SHR DUP2 ADD SWAP2 PUSH1 0x20 DUP5 LT PUSH2 0x440 JUMPI JUMPDEST PUSH1 0x1F ADD PUSH1 0x5 SHR ADD SWAP1 JUMPDEST DUP2 DUP2 LT PUSH2 0x434 JUMPI POP PUSH2 0x31D JUMP JUMPDEST PUSH1 0x0 DUP2 SSTORE PUSH1 0x1 ADD PUSH2 0x427 JUMP JUMPDEST SWAP1 SWAP2 POP DUP2 SWAP1 PUSH2 0x41E JUMP JUMPDEST PUSH4 0x4E487B71 PUSH1 0xE0 SHL PUSH1 0x0 MSTORE PUSH1 0x41 PUSH1 0x4 MSTORE PUSH1 0x24 PUSH1 0x0 REVERT JUMPDEST PUSH1 0x40 MLOAD PUSH3 0x461BCD PUSH1 0xE5 SHL DUP2 MSTORE PUSH1 0x20 PUSH1 0x4 DUP3 ADD MSTORE PUSH1 0x14 PUSH1 0x24 DUP3 ADD MSTORE PUSH20 0x426174636820616C726561647920657869737473 PUSH1 0x60 SHL PUSH1 0x44 DUP3 ADD MSTORE PUSH1 0x64 SWAP1 REVERT JUMPDEST PUSH1 0x40 MLOAD PUSH3 0x461BCD PUSH1 0xE5 SHL DUP2 MSTORE PUSH1 0x20 PUSH1 0x4 DUP3 ADD MSTORE PUSH1 0x1B PUSH1 0x24 DUP3 ADD MSTORE PUSH32 0x4472756720636F756E74206D75737420626520706F7369746976650000000000 PUSH1 0x44 DUP3 ADD MSTORE PUSH1 0x64 SWAP1 REVERT JUMPDEST PUSH1 0x40 MLOAD PUSH3 0x461BCD PUSH1 0xE5 SHL DUP2 MSTORE PUSH1 0x20 PUSH1 0x4 DUP3 ADD MSTORE PUSH1 0x13 PUSH1 0x24 DUP3 ADD MSTORE PUSH19 0x125B9D985B1A59081B595C9ADB19481C9BDBDD PUSH1 0x6A SHL PUSH1 0x44 DUP3 ADD MSTORE PUSH1 0x64 SWAP1 REVERT JUMPDEST POP CALLER PUSH1 0x0 SWAP1 DUP2 MSTORE PUSH32 0xAD3228B676F7D3CD4284A5443F17F1962B36E491B30A40B2405849E597BA5FB5 PUSH1 0x20 MSTORE PUSH1 0x40 SWAP1 KECCAK256 SLOAD PUSH1 0xFF AND PUSH2 0x21D JUMP JUMPDEST CALLVALUE PUSH2 0x132 JUMPI PUSH1 0x20 CALLDATASIZE PUSH1 0x3 NOT ADD SLT PUSH2 0x132 JUMPI PUSH1 0x4 CALLDATALOAD PUSH1 0x1 PUSH1 0x1 PUSH1 0xA0 SHL SUB DUP2 AND SWAP1 DUP2 SWAP1 SUB PUSH2 0x132 JUMPI PUSH1 0x0 MSTORE PUSH1 0x5 PUSH1 0x20 MSTORE PUSH1 0x20 PUSH1 0x40 PUSH1 0x0 KECCAK256 SLOAD PUSH1 0x40 MLOAD SWAP1 DUP2 MSTORE RETURN JUMPDEST CALLVALUE PUSH2 0x132 JUMPI PUSH1 0x60 CALLDATASIZE PUSH1 0x3 NOT ADD SLT PUSH2 0x132 JUMPI PUSH1 0x4 CALLDATALOAD PUSH8 0xFFFFFFFFFFFFFFFF DUP2 GT PUSH2 0x132 JUMPI PUSH2 0x5C5 PUSH1 0x20 SWAP2 CALLDATASIZE SWAP1 PUSH1 0x4 ADD PUSH2 0x10C2 JUMP JUMPDEST PUSH2 0x5CD PUSH2 0xF46 JUMP JUMPDEST PUSH2 0x61B PUSH1 0x54 PUSH1 0x40 MLOAD DUP1 SWAP4 DUP7 PUSH2 0x5EB DUP2 DUP5 ADD SWAP8 DUP9 DUP2 MLOAD SWAP4 DUP5 SWAP3 ADD PUSH2 0x107A JUMP JUMPDEST DUP3 ADD SWAP1 PUSH12 0xFFFFFFFFFFFFFFFFFFFFFFFF NOT SWAP1 PUSH1 0x60 SHL AND DUP8 DUP3 ADD MSTORE PUSH1 0x44 CALLDATALOAD PUSH1 0x34 DUP3 ADD MSTORE SUB PUSH1 0x34 DUP2 ADD DUP5 MSTORE ADD DUP3 PUSH2 0xF78 JUMP JUMPDEST MLOAD SWAP1 KECCAK256 PUSH1 0x40 MLOAD SWAP1 DUP2 MSTORE RETURN JUMPDEST CALLVALUE PUSH2 0x132 JUMPI PUSH1 0x40 CALLDATASIZE PUSH1 0x3 NOT ADD SLT PUSH2 0x132 JUMPI PUSH1 0x4 CALLDATALOAD PUSH1 0x24 CALLDATALOAD PUSH8 0xFFFFFFFFFFFFFFFF DUP2 GT PUSH2 0x132 JUMPI PUSH2 0x65A SWAP1 CALLDATASIZE SWAP1 PUSH1 0x4 ADD PUSH2 0x10C2 JUMP JUMPDEST CALLER PUSH1 0x0 SWAP1 DUP2 MSTORE PUSH32 0x30433366EAC5A2ACDE383037DF453AD4C87319592FED09ED71E70BBBD312D3FC PUSH1 0x20 SWAP1 DUP2 MSTORE PUSH1 0x40 SWAP1 SWAP2 KECCAK256 SLOAD SWAP1 SWAP3 SWAP2 SWAP1 PUSH1 0xFF AND DUP1 ISZERO PUSH2 0x749 JUMPI JUMPDEST PUSH2 0x6A3 SWAP1 PUSH2 0x1250 JUMP JUMPDEST DUP2 PUSH1 0x0 MSTORE PUSH1 0x2 DUP4 MSTORE PUSH1 0xFF PUSH1 0x4 PUSH1 0x40 PUSH1 0x0 KECCAK256 ADD SLOAD AND ISZERO PUSH2 0x711 JUMPI PUSH2 0x70C PUSH32 0x6CC795E272AA17EDEF887810C33965EDB8D8F9F3377573BEC2DCF05FC03BD540 SWAP2 DUP4 PUSH1 0x0 MSTORE PUSH1 0x2 DUP6 MSTORE PUSH1 0x4 PUSH1 0x40 PUSH1 0x0 KECCAK256 ADD PUSH1 0xFF NOT DUP2 SLOAD AND SWAP1 SSTORE PUSH1 0x40 MLOAD SWAP2 DUP3 SWAP2 DUP7 DUP4 MSTORE CALLER SWAP7 DUP4 ADD SWAP1 PUSH2 0x109D JUMP JUMPDEST SUB SWAP1 LOG3 STOP JUMPDEST PUSH1 0x40 MLOAD PUSH3 0x461BCD PUSH1 0xE5 SHL DUP2 MSTORE PUSH1 0x4 DUP2 ADD DUP5 SWAP1 MSTORE PUSH1 0x10 PUSH1 0x24 DUP3 ADD MSTORE PUSH16 0x4261746368206E6F7420616374697665 PUSH1 0x80 SHL PUSH1 0x44 DUP3 ADD MSTORE PUSH1 0x64 SWAP1 REVERT JUMPDEST POP PUSH1 0x0 DUP1 DUP1 MSTORE DUP1 DUP5 MSTORE PUSH1 0x40 DUP1 DUP3 KECCAK256 CALLER DUP4 MSTORE DUP6 MSTORE SWAP1 KECCAK256 SLOAD PUSH1 0xFF AND PUSH2 0x69A JUMP JUMPDEST CALLVALUE PUSH2 0x132 JUMPI PUSH1 0x0 CALLDATASIZE PUSH1 0x3 NOT ADD SLT PUSH2 0x132 JUMPI PUSH1 0x20 PUSH1 0x40 MLOAD PUSH32 0xF01DFFF628BB2030BB23788FE73598A0F61C4E4B7F7AB01AC604BE7F33162B48 DUP2 MSTORE RETURN JUMPDEST CALLVALUE PUSH2 0x132 JUMPI PUSH1 0x0 CALLDATASIZE PUSH1 0x3 NOT ADD SLT PUSH2 0x132 JUMPI PUSH1 0x20 PUSH1 0x40 MLOAD PUSH1 0x0 DUP2 MSTORE RETURN JUMPDEST CALLVALUE PUSH2 0x132 JUMPI PUSH1 0x40 CALLDATASIZE PUSH1 0x3 NOT ADD SLT PUSH2 0x132 JUMPI PUSH2 0x7D7 PUSH2 0xF46 JUMP JUMPDEST PUSH1 0x4 CALLDATALOAD PUSH1 0x0 MSTORE PUSH1 0x0 PUSH1 0x20 MSTORE PUSH1 0x40 PUSH1 0x0 KECCAK256 SWAP1 PUSH1 0x1 DUP1 PUSH1 0xA0 SHL SUB AND PUSH1 0x0 MSTORE PUSH1 0x20 MSTORE PUSH1 0x20 PUSH1 0xFF PUSH1 0x40 PUSH1 0x0 KECCAK256 SLOAD AND PUSH1 0x40 MLOAD SWAP1 ISZERO ISZERO DUP2 MSTORE RETURN JUMPDEST CALLVALUE PUSH2 0x132 JUMPI PUSH1 0x20 PUSH1 0x3 NOT DUP2 DUP2 CALLDATASIZE ADD SLT PUSH2 0x132 JUMPI PUSH8 0xFFFFFFFFFFFFFFFF PUSH1 0x4 CALLDATALOAD DUP2 DUP2 GT PUSH2 0x132 JUMPI PUSH2 0x100 DUP1 SWAP4 DUP3 CALLDATASIZE SUB ADD SLT PUSH2 0x132 JUMPI PUSH1 0x40 MLOAD SWAP3 DUP4 ADD DUP4 DUP2 LT DUP4 DUP3 GT OR PUSH2 0x44A JUMPI PUSH1 0x40 MSTORE DUP1 PUSH1 0x4 ADD CALLDATALOAD DUP3 DUP2 GT PUSH2 0x132 JUMPI PUSH2 0x86F SWAP1 PUSH1 0x4 CALLDATASIZE SWAP2 DUP5 ADD ADD PUSH2 0x10C2 JUMP JUMPDEST DUP4 MSTORE PUSH1 0x24 DUP2 ADD CALLDATALOAD DUP3 DUP2 GT PUSH2 0x132 JUMPI PUSH2 0x88D SWAP1 PUSH1 0x4 CALLDATASIZE SWAP2 DUP5 ADD ADD PUSH2 0x10C2 JUMP JUMPDEST SWAP3 DUP5 DUP2 ADD SWAP4 DUP5 MSTORE PUSH1 0x44 DUP3 ADD CALLDATALOAD DUP4 DUP2 GT PUSH2 0x132 JUMPI PUSH2 0x8B0 SWAP1 PUSH1 0x4 CALLDATASIZE SWAP2 DUP6 ADD ADD PUSH2 0x10C2 JUMP JUMPDEST SWAP2 PUSH1 0x40 DUP3 ADD SWAP3 DUP4 MSTORE PUSH1 0x60 DUP3 ADD SWAP4 PUSH1 0x64 DUP3 ADD CALLDATALOAD DUP6 MSTORE PUSH1 0x80 DUP4 ADD SWAP1 PUSH1 0x84 DUP4 ADD CALLDATALOAD DUP3 MSTORE PUSH1 0xA0 DUP5 ADD SWAP3 PUSH1 0xA4 DUP2 ADD CALLDATALOAD DUP5 MSTORE PUSH1 0xC4 DUP2 ADD CALLDATALOAD DUP3 DUP2 GT PUSH2 0x132 JUMPI PUSH2 0x8F8 SWAP1 PUSH1 0x4 CALLDATASIZE SWAP2 DUP5 ADD ADD PUSH2 0x10C2 JUMP JUMPDEST SWAP2 PUSH1 0xC0 DUP7 ADD SWAP3 DUP4 MSTORE PUSH1 0xE4 DUP3 ADD CALLDATALOAD SWAP1 DUP2 GT PUSH2 0x132 JUMPI CALLDATASIZE SWAP2 ADD PUSH1 0x4 ADD SWAP1 PUSH2 0x91C SWAP2 PUSH2 0x10C2 JUMP JUMPDEST SWAP4 DUP5 PUSH1 0xE0 DUP3 ADD MSTORE MLOAD SWAP7 MLOAD SWAP5 MLOAD SWAP6 MLOAD SWAP2 MLOAD SWAP3 MLOAD SWAP1 MLOAD SWAP3 PUSH1 0x40 MLOAD SWAP7 DUP8 SWAP7 DUP11 DUP1 DUP10 ADD DUP12 DUP2 SWAP13 MLOAD SWAP3 DUP4 SWAP2 ADD SWAP2 PUSH2 0x94D SWAP3 PUSH2 0x107A JUMP JUMPDEST DUP9 ADD DUP2 MLOAD SWAP2 DUP3 DUP14 DUP1 DUP5 ADD SWAP3 ADD SWAP2 PUSH2 0x963 SWAP3 PUSH2 0x107A JUMP JUMPDEST ADD DUP2 MLOAD SWAP2 DUP3 DUP13 DUP1 DUP5 ADD SWAP3 ADD SWAP2 PUSH2 0x978 SWAP3 PUSH2 0x107A JUMP JUMPDEST ADD SWAP3 DUP10 DUP5 ADD MSTORE PUSH1 0x40 DUP4 ADD MSTORE PUSH1 0x60 DUP3 ADD MSTORE DUP2 MLOAD SWAP2 DUP3 DUP9 PUSH1 0x80 DUP5 ADD SWAP3 ADD SWAP2 PUSH2 0x99D SWAP3 PUSH2 0x107A JUMP JUMPDEST ADD DUP2 MLOAD SWAP2 DUP3 DUP8 PUSH1 0x80 DUP5 ADD SWAP3 ADD SWAP2 PUSH2 0x9B3 SWAP3 PUSH2 0x107A JUMP JUMPDEST ADD SUB PUSH1 0x60 DUP2 ADD DUP3 MSTORE PUSH1 0x80 ADD PUSH2 0x61B SWAP1 DUP3 PUSH2 0xF78 JUMP JUMPDEST CALLVALUE PUSH2 0x132 JUMPI PUSH1 0x20 DUP1 PUSH1 0x3 NOT CALLDATASIZE ADD SLT PUSH2 0x132 JUMPI PUSH1 0x60 PUSH1 0xA0 PUSH1 0x40 MLOAD PUSH2 0x9EA DUP2 PUSH2 0xF5C JUMP JUMPDEST PUSH1 0x0 DUP2 MSTORE PUSH1 0x0 DUP5 DUP3 ADD MSTORE PUSH1 0x0 PUSH1 0x40 DUP3 ADD MSTORE PUSH1 0x0 DUP4 DUP3 ADD MSTORE PUSH1 0x0 PUSH1 0x80 DUP3 ADD MSTORE ADD MSTORE PUSH1 0x4 CALLDATALOAD PUSH1 0x0 MSTORE PUSH1 0x2 DUP2 MSTORE PUSH1 0x40 PUSH1 0x0 KECCAK256 PUSH2 0xABB PUSH1 0x40 MLOAD SWAP2 PUSH2 0xA29 DUP4 PUSH2 0xF5C JUMP JUMPDEST DUP1 SLOAD DUP4 MSTORE PUSH1 0x1 DUP1 PUSH1 0xA0 SHL SUB SWAP1 DUP2 PUSH1 0x1 DUP3 ADD SLOAD AND SWAP2 DUP6 DUP6 ADD SWAP3 DUP4 MSTORE PUSH1 0x2 DUP3 ADD SLOAD PUSH1 0x40 DUP7 ADD SWAP1 DUP2 MSTORE PUSH1 0x3 DUP4 ADD SLOAD SWAP2 PUSH1 0x60 DUP8 ADD SWAP3 DUP4 MSTORE PUSH2 0xA79 PUSH1 0x5 PUSH1 0xFF PUSH1 0x4 DUP8 ADD SLOAD AND SWAP6 PUSH1 0x80 DUP11 ADD SWAP7 ISZERO ISZERO DUP8 MSTORE ADD PUSH2 0xFD4 JUMP JUMPDEST SWAP5 PUSH1 0xA0 DUP9 ADD SWAP6 DUP7 MSTORE PUSH1 0x40 MLOAD SWAP9 DUP10 SWAP9 DUP2 DUP11 MSTORE MLOAD SWAP1 DUP10 ADD MSTORE MLOAD AND PUSH1 0x40 DUP8 ADD MSTORE MLOAD PUSH1 0x60 DUP7 ADD MSTORE MLOAD PUSH1 0x80 DUP6 ADD MSTORE MLOAD ISZERO ISZERO PUSH1 0xA0 DUP5 ADD MSTORE MLOAD PUSH1 0xC0 DUP1 DUP5 ADD MSTORE PUSH1 0xE0 DUP4 ADD SWAP1 PUSH2 0x109D JUMP JUMPDEST SUB SWAP1 RETURN JUMPDEST CALLVALUE PUSH2 0x132 JUMPI PUSH1 0x20 CALLDATASIZE PUSH1 0x3 NOT ADD SLT PUSH2 0x132 JUMPI PUSH1 0x4 CALLDATALOAD PUSH1 0x0 MSTORE PUSH1 0x2 PUSH1 0x20 MSTORE PUSH1 0x40 PUSH1 0x0 KECCAK256 DUP1 SLOAD PUSH2 0xABB PUSH1 0x1 DUP1 PUSH1 0xA0 SHL SUB PUSH1 0x1 DUP5 ADD SLOAD AND SWAP3 PUSH1 0x2 DUP2 ADD SLOAD SWAP1 PUSH1 0x3 DUP2 ADD SLOAD PUSH2 0xB12 PUSH1 0x5 PUSH1 0xFF PUSH1 0x4 DUP6 ADD SLOAD AND SWAP4 ADD PUSH2 0xFD4 JUMP JUMPDEST SWAP3 PUSH1 0x40 MLOAD SWAP7 DUP8 SWAP7 DUP8 MSTORE PUSH1 0x20 DUP8 ADD MSTORE PUSH1 0x40 DUP7 ADD MSTORE PUSH1 0x60 DUP6 ADD MSTORE ISZERO ISZERO PUSH1 0x80 DUP5 ADD MSTORE PUSH1 0xC0 PUSH1 0xA0 DUP5 ADD MSTORE PUSH1 0xC0 DUP4 ADD SWAP1 PUSH2 0x109D JUMP JUMPDEST CALLVALUE PUSH2 0x132 JUMPI PUSH1 0x60 CALLDATASIZE PUSH1 0x3 NOT ADD SLT PUSH2 0x132 JUMPI PUSH8 0xFFFFFFFFFFFFFFFF PUSH1 0x24 PUSH1 0x4 CALLDATALOAD PUSH1 0x44 CALLDATALOAD DUP3 CALLDATALOAD DUP5 DUP3 GT PUSH2 0x132 JUMPI CALLDATASIZE PUSH1 0x23 DUP4 ADD SLT ISZERO PUSH2 0x132 JUMPI DUP2 PUSH1 0x4 ADD CALLDATALOAD SWAP5 DUP6 GT PUSH2 0xDF8 JUMPI PUSH1 0x5 SWAP1 DUP6 DUP3 SHL PUSH1 0x40 MLOAD SWAP4 PUSH1 0x20 SWAP8 PUSH2 0xB9D DUP10 DUP5 ADD DUP8 PUSH2 0xF78 JUMP JUMPDEST DUP6 MSTORE DUP7 DUP9 DUP7 ADD SWAP3 DUP3 ADD ADD SWAP2 CALLDATASIZE DUP4 GT PUSH2 0x132 JUMPI DUP8 DUP10 SWAP3 ADD SWAP1 JUMPDEST DUP4 DUP3 LT PUSH2 0xDE9 JUMPI POP POP POP POP PUSH32 0xCE23C3E399818CFEE81A7AB0880F714E53D7672B08DF0FA62F2843416E1EA09 PUSH1 0x0 MSTORE PUSH1 0x0 DUP7 MSTORE PUSH1 0x40 PUSH1 0x0 KECCAK256 CALLER PUSH1 0x0 MSTORE DUP7 MSTORE PUSH1 0xFF PUSH1 0x40 PUSH1 0x0 KECCAK256 SLOAD AND DUP1 ISZERO PUSH2 0xDC7 JUMPI JUMPDEST ISZERO PUSH2 0xD8B JUMPI PUSH2 0xC10 PUSH2 0x129C JUMP JUMPDEST DUP4 PUSH1 0x0 MSTORE PUSH1 0x2 DUP7 MSTORE PUSH1 0x40 PUSH1 0x0 KECCAK256 PUSH1 0xFF PUSH1 0x4 DUP3 ADD SLOAD AND ISZERO PUSH2 0xD47 JUMPI SLOAD SWAP5 DUP6 ISZERO PUSH2 0xD14 JUMPI POP PUSH1 0x0 SWAP4 DUP2 JUMPDEST DUP5 MLOAD DUP7 LT ISZERO PUSH2 0xC7F JUMPI DUP6 DUP5 SHL DUP6 ADD DUP9 ADD MLOAD SWAP1 DUP2 DUP2 LT ISZERO PUSH2 0xC6C JUMPI PUSH1 0x0 MSTORE DUP8 MSTORE PUSH2 0xC66 PUSH1 0x40 PUSH1 0x0 KECCAK256 JUMPDEST SWAP6 PUSH2 0x12BF JUMP JUMPDEST SWAP5 PUSH2 0xC38 JUMP JUMPDEST SWAP1 PUSH1 0x0 MSTORE DUP8 MSTORE PUSH2 0xC66 PUSH1 0x40 PUSH1 0x0 KECCAK256 PUSH2 0xC60 JUMP JUMPDEST DUP8 SWAP5 POP DUP7 EQ SWAP3 DUP4 PUSH2 0xCCA JUMPI JUMPDEST POP PUSH1 0x40 MLOAD SWAP2 DUP4 DUP4 MSTORE TIMESTAMP DUP6 DUP5 ADD MSTORE PUSH32 0x1BAD957772D37D622630F431A184D6E6932ABFE1DDF17B738B3E6B0320715919 PUSH1 0x40 CALLER SWAP5 LOG4 PUSH1 0x1 DUP1 SSTORE PUSH1 0x40 MLOAD SWAP1 DUP2 MSTORE RETURN JUMPDEST DUP3 PUSH1 0x0 MSTORE PUSH1 0x3 DUP6 MSTORE PUSH1 0x40 PUSH1 0x0 KECCAK256 PUSH1 0x1 PUSH1 0xFF NOT DUP3 SLOAD AND OR SWAP1 SSTORE PUSH1 0x4 DUP6 MSTORE PUSH1 0x40 PUSH1 0x0 KECCAK256 PUSH2 0xCF5 DUP2 SLOAD PUSH2 0x12BF JUMP JUMPDEST SWAP1 SSTORE CALLER PUSH1 0x0 MSTORE DUP5 MSTORE PUSH1 0x40 PUSH1 0x0 KECCAK256 PUSH2 0xD0C DUP2 SLOAD PUSH2 0x12BF JUMP JUMPDEST SWAP1 SSTORE DUP5 PUSH2 0xC8B JUMP JUMPDEST DUP7 PUSH1 0xD PUSH1 0x64 SWAP3 PUSH1 0x40 MLOAD SWAP3 PUSH3 0x461BCD PUSH1 0xE5 SHL DUP5 MSTORE PUSH1 0x4 DUP5 ADD MSTORE DUP3 ADD MSTORE PUSH13 0x92DCECC2D8D2C840C4C2E8C6D PUSH1 0x9B SHL PUSH1 0x44 DUP3 ADD MSTORE REVERT JUMPDEST PUSH1 0x40 MLOAD PUSH3 0x461BCD PUSH1 0xE5 SHL DUP2 MSTORE PUSH1 0x4 DUP2 ADD DUP9 SWAP1 MSTORE PUSH1 0x1B DUP2 DUP9 ADD MSTORE PUSH32 0x4261746368206E6F7420666F756E64206F7220696E6163746976650000000000 PUSH1 0x44 DUP3 ADD MSTORE PUSH1 0x64 SWAP1 REVERT JUMPDEST PUSH1 0x40 MLOAD PUSH3 0x461BCD PUSH1 0xE5 SHL DUP2 MSTORE PUSH1 0x4 DUP2 ADD DUP8 SWAP1 MSTORE PUSH1 0x15 DUP2 DUP8 ADD MSTORE PUSH21 0x2AB730BABA3437B934BD32B2103B32B934B334B2B9 PUSH1 0x59 SHL PUSH1 0x44 DUP3 ADD MSTORE PUSH1 0x64 SWAP1 REVERT JUMPDEST POP PUSH1 0x0 DUP1 MSTORE PUSH1 0x0 DUP7 MSTORE PUSH1 0x40 PUSH1 0x0 KECCAK256 CALLER PUSH1 0x0 MSTORE DUP7 MSTORE PUSH1 0xFF PUSH1 0x40 PUSH1 0x0 KECCAK256 SLOAD AND PUSH2 0xC03 JUMP JUMPDEST DUP2 CALLDATALOAD DUP2 MSTORE SWAP1 DUP3 ADD SWAP1 DUP3 ADD PUSH2 0xBB5 JUMP JUMPDEST DUP4 PUSH4 0x4E487B71 PUSH1 0xE0 SHL PUSH1 0x0 MSTORE PUSH1 0x41 PUSH1 0x4 MSTORE PUSH1 0x0 REVERT JUMPDEST CALLVALUE PUSH2 0x132 JUMPI PUSH1 0x20 CALLDATASIZE PUSH1 0x3 NOT ADD SLT PUSH2 0x132 JUMPI PUSH1 0x4 CALLDATALOAD PUSH1 0x0 MSTORE PUSH1 0x3 PUSH1 0x20 MSTORE PUSH1 0x20 PUSH1 0xFF PUSH1 0x40 PUSH1 0x0 KECCAK256 SLOAD AND PUSH1 0x40 MLOAD SWAP1 ISZERO ISZERO DUP2 MSTORE RETURN JUMPDEST CALLVALUE PUSH2 0x132 JUMPI PUSH1 0x40 CALLDATASIZE PUSH1 0x3 NOT ADD SLT PUSH2 0x132 JUMPI PUSH2 0xE57 PUSH2 0xF46 JUMP JUMPDEST CALLER PUSH1 0x1 PUSH1 0x1 PUSH1 0xA0 SHL SUB DUP3 AND SUB PUSH2 0xE73 JUMPI PUSH2 0x1B1 SWAP1 PUSH1 0x4 CALLDATALOAD PUSH2 0x11DB JUMP JUMPDEST PUSH1 0x40 MLOAD PUSH4 0x334BD919 PUSH1 0xE1 SHL DUP2 MSTORE PUSH1 0x4 SWAP1 REVERT JUMPDEST CALLVALUE PUSH2 0x132 JUMPI PUSH1 0x40 CALLDATASIZE PUSH1 0x3 NOT ADD SLT PUSH2 0x132 JUMPI PUSH2 0x1B1 PUSH1 0x4 CALLDATALOAD PUSH2 0xEA4 PUSH2 0xF46 JUMP JUMPDEST SWAP1 DUP1 PUSH1 0x0 MSTORE PUSH1 0x0 PUSH1 0x20 MSTORE PUSH2 0xEBF PUSH1 0x1 PUSH1 0x40 PUSH1 0x0 KECCAK256 ADD SLOAD PUSH2 0x1119 JUMP JUMPDEST PUSH2 0x115D JUMP JUMPDEST CALLVALUE PUSH2 0x132 JUMPI PUSH1 0x20 CALLDATASIZE PUSH1 0x3 NOT ADD SLT PUSH2 0x132 JUMPI PUSH1 0x4 CALLDATALOAD PUSH1 0x0 MSTORE PUSH1 0x0 PUSH1 0x20 MSTORE PUSH1 0x20 PUSH1 0x1 PUSH1 0x40 PUSH1 0x0 KECCAK256 ADD SLOAD PUSH1 0x40 MLOAD SWAP1 DUP2 MSTORE RETURN JUMPDEST CALLVALUE PUSH2 0x132 JUMPI PUSH1 0x20 CALLDATASIZE PUSH1 0x3 NOT ADD SLT PUSH2 0x132 JUMPI PUSH1 0x4 CALLDATALOAD SWAP1 PUSH4 0xFFFFFFFF PUSH1 0xE0 SHL DUP3 AND DUP1 SWAP3 SUB PUSH2 0x132 JUMPI PUSH1 0x20 SWAP2 PUSH4 0x7965DB0B PUSH1 0xE0 SHL DUP2 EQ SWAP1 DUP2 ISZERO PUSH2 0xF35 JUMPI JUMPDEST POP ISZERO ISZERO DUP2 MSTORE RETURN JUMPDEST PUSH4 0x1FFC9A7 PUSH1 0xE0 SHL EQ SWAP1 POP DUP4 PUSH2 0xF2E JUMP JUMPDEST PUSH1 0x24 CALLDATALOAD SWAP1 PUSH1 0x1 PUSH1 0x1 PUSH1 0xA0 SHL SUB DUP3 AND DUP3 SUB PUSH2 0x132 JUMPI JUMP JUMPDEST PUSH1 0xC0 DUP2 ADD SWAP1 DUP2 LT PUSH8 0xFFFFFFFFFFFFFFFF DUP3 GT OR PUSH2 0x44A JUMPI PUSH1 0x40 MSTORE JUMP JUMPDEST SWAP1 PUSH1 0x1F DUP1 NOT SWAP2 ADD AND DUP2 ADD SWAP1 DUP2 LT PUSH8 0xFFFFFFFFFFFFFFFF DUP3 GT OR PUSH2 0x44A JUMPI PUSH1 0x40 MSTORE JUMP JUMPDEST SWAP1 PUSH1 0x1 DUP3 DUP2 SHR SWAP3 AND DUP1 ISZERO PUSH2 0xFCA JUMPI JUMPDEST PUSH1 0x20 DUP4 LT EQ PUSH2 0xFB4 JUMPI JUMP JUMPDEST PUSH4 0x4E487B71 PUSH1 0xE0 SHL PUSH1 0x0 MSTORE PUSH1 0x22 PUSH1 0x4 MSTORE PUSH1 0x24 PUSH1 0x0 REVERT JUMPDEST SWAP2 PUSH1 0x7F AND SWAP2 PUSH2 0xFA9 JUMP JUMPDEST SWAP1 PUSH1 0x40 MLOAD SWAP2 DUP3 PUSH1 0x0 DUP3 SLOAD SWAP3 PUSH2 0xFE8 DUP5 PUSH2 0xF9A JUMP JUMPDEST SWAP1 DUP2 DUP5 MSTORE PUSH1 0x1 SWAP5 DUP6 DUP2 AND SWAP1 DUP2 PUSH1 0x0 EQ PUSH2 0x1057 JUMPI POP PUSH1 0x1 EQ PUSH2 0x1014 JUMPI JUMPDEST POP POP PUSH2 0x1012 SWAP3 POP SUB DUP4 PUSH2 0xF78 JUMP JUMPDEST JUMP JUMPDEST SWAP1 SWAP4 SWAP2 POP PUSH1 0x0 MSTORE PUSH1 0x20 SWAP1 DUP2 PUSH1 0x0 KECCAK256 SWAP4 PUSH1 0x0 SWAP2 JUMPDEST DUP2 DUP4 LT PUSH2 0x103F JUMPI POP POP PUSH2 0x1012 SWAP4 POP DUP3 ADD ADD CODESIZE DUP1 PUSH2 0x1004 JUMP JUMPDEST DUP6 SLOAD DUP9 DUP5 ADD DUP6 ADD MSTORE SWAP5 DUP6 ADD SWAP5 DUP8 SWAP5 POP SWAP2 DUP4 ADD SWAP2 PUSH2 0x1027 JUMP JUMPDEST SWAP2 POP POP PUSH2 0x1012 SWAP5 POP PUSH1 0x20 SWAP3 POP PUSH1 0xFF NOT AND DUP3 DUP5 ADD MSTORE ISZERO ISZERO PUSH1 0x5 SHL DUP3 ADD ADD CODESIZE DUP1 PUSH2 0x1004 JUMP JUMPDEST PUSH1 0x0 JUMPDEST DUP4 DUP2 LT PUSH2 0x108D JUMPI POP POP PUSH1 0x0 SWAP2 ADD MSTORE JUMP JUMPDEST DUP2 DUP2 ADD MLOAD DUP4 DUP3 ADD MSTORE PUSH1 0x20 ADD PUSH2 0x107D JUMP JUMPDEST SWAP1 PUSH1 0x20 SWAP2 PUSH2 0x10B6 DUP2 MLOAD DUP1 SWAP3 DUP2 DUP6 MSTORE DUP6 DUP1 DUP7 ADD SWAP2 ADD PUSH2 0x107A JUMP JUMPDEST PUSH1 0x1F ADD PUSH1 0x1F NOT AND ADD ADD SWAP1 JUMP JUMPDEST DUP2 PUSH1 0x1F DUP3 ADD SLT ISZERO PUSH2 0x132 JUMPI DUP1 CALLDATALOAD SWAP1 PUSH8 0xFFFFFFFFFFFFFFFF DUP3 GT PUSH2 0x44A JUMPI PUSH1 0x40 MLOAD SWAP3 PUSH2 0x10F7 PUSH1 0x1F DUP5 ADD PUSH1 0x1F NOT AND PUSH1 0x20 ADD DUP6 PUSH2 0xF78 JUMP JUMPDEST DUP3 DUP5 MSTORE PUSH1 0x20 DUP4 DUP4 ADD ADD GT PUSH2 0x132 JUMPI DUP2 PUSH1 0x0 SWAP3 PUSH1 0x20 DUP1 SWAP4 ADD DUP4 DUP7 ADD CALLDATACOPY DUP4 ADD ADD MSTORE SWAP1 JUMP JUMPDEST DUP1 PUSH1 0x0 MSTORE PUSH1 0x0 PUSH1 0x20 MSTORE PUSH1 0x40 PUSH1 0x0 KECCAK256 CALLER PUSH1 0x0 MSTORE PUSH1 0x20 MSTORE PUSH1 0xFF PUSH1 0x40 PUSH1 0x0 KECCAK256 SLOAD AND ISZERO PUSH2 0x113F JUMPI POP JUMP JUMPDEST PUSH1 0x44 SWAP1 PUSH1 0x40 MLOAD SWAP1 PUSH4 0xE2517D3F PUSH1 0xE0 SHL DUP3 MSTORE CALLER PUSH1 0x4 DUP4 ADD MSTORE PUSH1 0x24 DUP3 ADD MSTORE REVERT JUMPDEST SWAP1 PUSH1 0x0 SWAP2 DUP1 DUP4 MSTORE DUP3 PUSH1 0x20 MSTORE PUSH1 0x40 DUP4 KECCAK256 SWAP2 PUSH1 0x1 DUP1 PUSH1 0xA0 SHL SUB AND SWAP2 DUP3 DUP5 MSTORE PUSH1 0x20 MSTORE PUSH1 0xFF PUSH1 0x40 DUP5 KECCAK256 SLOAD AND ISZERO PUSH1 0x0 EQ PUSH2 0x11D6 JUMPI DUP1 DUP4 MSTORE DUP3 PUSH1 0x20 MSTORE PUSH1 0x40 DUP4 KECCAK256 DUP3 DUP5 MSTORE PUSH1 0x20 MSTORE PUSH1 0x40 DUP4 KECCAK256 PUSH1 0x1 PUSH1 0xFF NOT DUP3 SLOAD AND OR SWAP1 SSTORE PUSH32 0x2F8788117E7EFF1D82E926EC794901D17C78024A50270940304540A733656F0D CALLER SWAP4 DUP1 LOG4 PUSH1 0x1 SWAP1 JUMP JUMPDEST POP POP SWAP1 JUMP JUMPDEST SWAP1 PUSH1 0x0 SWAP2 DUP1 DUP4 MSTORE DUP3 PUSH1 0x20 MSTORE PUSH1 0x40 DUP4 KECCAK256 SWAP2 PUSH1 0x1 DUP1 PUSH1 0xA0 SHL SUB AND SWAP2 DUP3 DUP5 MSTORE PUSH1 0x20 MSTORE PUSH1 0xFF PUSH1 0x40 DUP5 KECCAK256 SLOAD AND PUSH1 0x0 EQ PUSH2 0x11D6 JUMPI DUP1 DUP4 MSTORE DUP3 PUSH1 0x20 MSTORE PUSH1 0x40 DUP4 KECCAK256 DUP3 DUP5 MSTORE PUSH1 0x20 MSTORE PUSH1 0x40 DUP4 KECCAK256 PUSH1 0xFF NOT DUP2 SLOAD AND SWAP1 SSTORE PUSH32 0xF6391F5C32D9C69D2A47EA670B442974B53935D1EDC7FD64EB21E047A839171B CALLER SWAP4 DUP1 LOG4 PUSH1 0x1 SWAP1 JUMP JUMPDEST ISZERO PUSH2 0x1257 JUMPI JUMP JUMPDEST PUSH1 0x40 MLOAD PUSH3 0x461BCD PUSH1 0xE5 SHL DUP2 MSTORE PUSH1 0x20 PUSH1 0x4 DUP3 ADD MSTORE PUSH1 0x1A PUSH1 0x24 DUP3 ADD MSTORE PUSH32 0x556E617574686F72697A65642062617463682063726561746F72000000000000 PUSH1 0x44 DUP3 ADD MSTORE PUSH1 0x64 SWAP1 REVERT JUMPDEST PUSH1 0x2 PUSH1 0x1 SLOAD EQ PUSH2 0x12AD JUMPI PUSH1 0x2 PUSH1 0x1 SSTORE JUMP JUMPDEST PUSH1 0x40 MLOAD PUSH4 0x3EE5AEB5 PUSH1 0xE0 SHL DUP2 MSTORE PUSH1 0x4 SWAP1 REVERT JUMPDEST PUSH1 0x0 NOT DUP2 EQ PUSH2 0x12CE JUMPI PUSH1 0x1 ADD SWAP1 JUMP JUMPDEST PUSH4 0x4E487B71 PUSH1 0xE0 SHL PUSH1 0x0 MSTORE PUSH1 0x11 PUSH1 0x4 MSTORE PUSH1 0x24 PUSH1 0x0 REVERT INVALID LOG2 PUSH5 0x6970667358 0x22 SLT KECCAK256 PUSH17 0x677D3F7E29AF26340F59DE9EC5E7AE33A5 0xE 0xBC 0xC MSIZE 0xC3 0xE5 LOG1 0xF 0xF6 0xDE XOR 0x49 0xBB PUSH31 0x64736F6C634300081400332F8788117E7EFF1D82E926EC794901D17C78024A POP 0x27 MULMOD BLOCKHASH ADDRESS GASLIMIT BLOCKHASH 0xA7 CALLER PUSH6 0x6F0D00000000 "},"methodIdentifiers":{"BATCH_CREATOR_ROLE()":"b500365e","DEFAULT_ADMIN_ROLE()":"a217fddf","VERIFIER_ROLE()":"e7705db6","batchInfo(bytes32)":"74aa1496","createBatchWithMerkleRoot(bytes32,bytes32,uint256,string)":"c4233e5c","deactivateBatch(bytes32,string)":"b97d8c47","drugVerificationCount(bytes32)":"fc68d3dd","generateBatchHash(string,address,uint256)":"be8c9fab","generateDrugHash((string,string,string,uint256,uint256,uint256,string,string))":"8274d045","getBatchInfo(bytes32)":"753207c7","getDrugVerificationCount(bytes32)":"1c43e095","getRoleAdmin(bytes32)":"248a9ca3","grantRole(bytes32,address)":"2f2ff15d","hasRole(bytes32,address)":"91d14854","isDrugVerified(bytes32)":"1d4aa61f","renounceRole(bytes32,address)":"36568abe","revokeRole(bytes32,address)":"d547741f","supportsInterface(bytes4)":"01ffc9a7","verifiedDrugs(bytes32)":"52bcc90d","verifierCount(address)":"c3f5a1b4","verifyDrugInBatch(bytes32,bytes32,bytes32[])":"5b46e13e"}}}}}